{
  "address": "0xBF8060c427Cbe90B039cbE3ffb900f5aF0d57166",
  "abi": [
    {
      "constant": true,
      "inputs": [],
      "name": "name",
      "outputs": [
        {
          "name": "",
          "type": "string"
        }
      ],
      "payable": false,
      "stateMutability": "view",
      "type": "function"
    },
    {
      "constant": false,
      "inputs": [
        {
          "name": "_upgradedAddress",
          "type": "address"
        }
      ],
      "name": "deprecate",
      "outputs": [],
      "payable": false,
      "stateMutability": "nonpayable",
      "type": "function"
    },
    {
      "constant": false,
      "inputs": [
        {
          "name": "_spender",
          "type": "address"
        },
        {
          "name": "_value",
          "type": "uint256"
        }
      ],
      "name": "approve",
      "outputs": [
        {
          "name": "",
          "type": "bool"
        }
      ],
      "payable": false,
      "stateMutability": "nonpayable",
      "type": "function"
    },
    {
      "constant": true,
      "inputs": [],
      "name": "deprecated",
      "outputs": [
        {
          "name": "",
          "type": "bool"
        }
      ],
      "payable": false,
      "stateMutability": "view",
      "type": "function"
    },
    {
      "constant": false,
      "inputs": [
        {
          "name": "_evilUser",
          "type": "address"
        }
      ],
      "name": "addBlackList",
      "outputs": [],
      "payable": false,
      "stateMutability": "nonpayable",
      "type": "function"
    },
    {
      "constant": true,
      "inputs": [],
      "name": "totalSupply",
      "outputs": [
        {
          "name": "",
          "type": "uint256"
        }
      ],
      "payable": false,
      "stateMutability": "view",
      "type": "function"
    },
    {
      "constant": false,
      "inputs": [
        {
          "name": "_from",
          "type": "address"
        },
        {
          "name": "_to",
          "type": "address"
        },
        {
          "name": "_value",
          "type": "uint256"
        }
      ],
      "name": "transferFrom",
      "outputs": [
        {
          "name": "",
          "type": "bool"
        }
      ],
      "payable": false,
      "stateMutability": "nonpayable",
      "type": "function"
    },
    {
      "constant": true,
      "inputs": [],
      "name": "upgradedAddress",
      "outputs": [
        {
          "name": "",
          "type": "address"
        }
      ],
      "payable": false,
      "stateMutability": "view",
      "type": "function"
    },
    {
      "constant": true,
      "inputs": [],
      "name": "decimals",
      "outputs": [
        {
          "name": "",
          "type": "uint8"
        }
      ],
      "payable": false,
      "stateMutability": "view",
      "type": "function"
    },
    {
      "constant": true,
      "inputs": [],
      "name": "maximumFee",
      "outputs": [
        {
          "name": "",
          "type": "uint256"
        }
      ],
      "payable": false,
      "stateMutability": "view",
      "type": "function"
    },
    {
      "constant": false,
      "inputs": [
        {
          "name": "spender",
          "type": "address"
        },
        {
          "name": "addedValue",
          "type": "uint256"
        }
      ],
      "name": "increaseAllowance",
      "outputs": [
        {
          "name": "",
          "type": "bool"
        }
      ],
      "payable": false,
      "stateMutability": "nonpayable",
      "type": "function"
    },
    {
      "constant": false,
      "inputs": [],
      "name": "unpause",
      "outputs": [],
      "payable": false,
      "stateMutability": "nonpayable",
      "type": "function"
    },
    {
      "constant": true,
      "inputs": [
        {
          "name": "account",
          "type": "address"
        }
      ],
      "name": "isPauser",
      "outputs": [
        {
          "name": "",
          "type": "bool"
        }
      ],
      "payable": false,
      "stateMutability": "view",
      "type": "function"
    },
    {
      "constant": true,
      "inputs": [
        {
          "name": "_maker",
          "type": "address"
        }
      ],
      "name": "getBlackListStatus",
      "outputs": [
        {
          "name": "",
          "type": "bool"
        }
      ],
      "payable": false,
      "stateMutability": "view",
      "type": "function"
    },
    {
      "constant": true,
      "inputs": [],
      "name": "paused",
      "outputs": [
        {
          "name": "",
          "type": "bool"
        }
      ],
      "payable": false,
      "stateMutability": "view",
      "type": "function"
    },
    {
      "constant": false,
      "inputs": [
        {
          "name": "_spender",
          "type": "address"
        },
        {
          "name": "_subtractedValue",
          "type": "uint256"
        }
      ],
      "name": "decreaseApproval",
      "outputs": [
        {
          "name": "",
          "type": "bool"
        }
      ],
      "payable": false,
      "stateMutability": "nonpayable",
      "type": "function"
    },
    {
      "constant": false,
      "inputs": [],
      "name": "renouncePauser",
      "outputs": [],
      "payable": false,
      "stateMutability": "nonpayable",
      "type": "function"
    },
    {
      "constant": true,
      "inputs": [
        {
          "name": "who",
          "type": "address"
        }
      ],
      "name": "balanceOf",
      "outputs": [
        {
          "name": "",
          "type": "uint256"
        }
      ],
      "payable": false,
      "stateMutability": "view",
      "type": "function"
    },
    {
      "constant": false,
      "inputs": [],
      "name": "renounceOwnership",
      "outputs": [],
      "payable": false,
      "stateMutability": "nonpayable",
      "type": "function"
    },
    {
      "constant": false,
      "inputs": [
        {
          "name": "account",
          "type": "address"
        }
      ],
      "name": "addPauser",
      "outputs": [],
      "payable": false,
      "stateMutability": "nonpayable",
      "type": "function"
    },
    {
      "constant": false,
      "inputs": [],
      "name": "pause",
      "outputs": [],
      "payable": false,
      "stateMutability": "nonpayable",
      "type": "function"
    },
    {
      "constant": true,
      "inputs": [],
      "name": "owner",
      "outputs": [
        {
          "name": "",
          "type": "address"
        }
      ],
      "payable": false,
      "stateMutability": "view",
      "type": "function"
    },
    {
      "constant": true,
      "inputs": [],
      "name": "isOwner",
      "outputs": [
        {
          "name": "",
          "type": "bool"
        }
      ],
      "payable": false,
      "stateMutability": "view",
      "type": "function"
    },
    {
      "constant": true,
      "inputs": [],
      "name": "symbol",
      "outputs": [
        {
          "name": "",
          "type": "string"
        }
      ],
      "payable": false,
      "stateMutability": "view",
      "type": "function"
    },
    {
      "constant": false,
      "inputs": [
        {
          "name": "spender",
          "type": "address"
        },
        {
          "name": "subtractedValue",
          "type": "uint256"
        }
      ],
      "name": "decreaseAllowance",
      "outputs": [
        {
          "name": "",
          "type": "bool"
        }
      ],
      "payable": false,
      "stateMutability": "nonpayable",
      "type": "function"
    },
    {
      "constant": false,
      "inputs": [
        {
          "name": "_to",
          "type": "address"
        },
        {
          "name": "_value",
          "type": "uint256"
        }
      ],
      "name": "transfer",
      "outputs": [
        {
          "name": "",
          "type": "bool"
        }
      ],
      "payable": false,
      "stateMutability": "nonpayable",
      "type": "function"
    },
    {
      "constant": true,
      "inputs": [
        {
          "name": "who",
          "type": "address"
        }
      ],
      "name": "oldBalanceOf",
      "outputs": [
        {
          "name": "",
          "type": "uint256"
        }
      ],
      "payable": false,
      "stateMutability": "view",
      "type": "function"
    },
    {
      "constant": false,
      "inputs": [
        {
          "name": "newBasisPoints",
          "type": "uint256"
        },
        {
          "name": "newMaxFee",
          "type": "uint256"
        }
      ],
      "name": "setParams",
      "outputs": [],
      "payable": false,
      "stateMutability": "nonpayable",
      "type": "function"
    },
    {
      "constant": false,
      "inputs": [
        {
          "name": "amount",
          "type": "uint256"
        }
      ],
      "name": "issue",
      "outputs": [],
      "payable": false,
      "stateMutability": "nonpayable",
      "type": "function"
    },
    {
      "constant": false,
      "inputs": [
        {
          "name": "_spender",
          "type": "address"
        },
        {
          "name": "_addedValue",
          "type": "uint256"
        }
      ],
      "name": "increaseApproval",
      "outputs": [
        {
          "name": "",
          "type": "bool"
        }
      ],
      "payable": false,
      "stateMutability": "nonpayable",
      "type": "function"
    },
    {
      "constant": false,
      "inputs": [
        {
          "name": "amount",
          "type": "uint256"
        }
      ],
      "name": "redeem",
      "outputs": [],
      "payable": false,
      "stateMutability": "nonpayable",
      "type": "function"
    },
    {
      "constant": true,
      "inputs": [
        {
          "name": "_owner",
          "type": "address"
        },
        {
          "name": "_spender",
          "type": "address"
        }
      ],
      "name": "allowance",
      "outputs": [
        {
          "name": "remaining",
          "type": "uint256"
        }
      ],
      "payable": false,
      "stateMutability": "view",
      "type": "function"
    },
    {
      "constant": true,
      "inputs": [],
      "name": "basisPointsRate",
      "outputs": [
        {
          "name": "",
          "type": "uint256"
        }
      ],
      "payable": false,
      "stateMutability": "view",
      "type": "function"
    },
    {
      "constant": true,
      "inputs": [
        {
          "name": "",
          "type": "address"
        }
      ],
      "name": "isBlackListed",
      "outputs": [
        {
          "name": "",
          "type": "bool"
        }
      ],
      "payable": false,
      "stateMutability": "view",
      "type": "function"
    },
    {
      "constant": false,
      "inputs": [
        {
          "name": "_clearedUser",
          "type": "address"
        }
      ],
      "name": "removeBlackList",
      "outputs": [],
      "payable": false,
      "stateMutability": "nonpayable",
      "type": "function"
    },
    {
      "constant": true,
      "inputs": [],
      "name": "MAX_UINT",
      "outputs": [
        {
          "name": "",
          "type": "uint256"
        }
      ],
      "payable": false,
      "stateMutability": "view",
      "type": "function"
    },
    {
      "constant": false,
      "inputs": [
        {
          "name": "newOwner",
          "type": "address"
        }
      ],
      "name": "transferOwnership",
      "outputs": [],
      "payable": false,
      "stateMutability": "nonpayable",
      "type": "function"
    },
    {
      "constant": false,
      "inputs": [
        {
          "name": "_blackListedUser",
          "type": "address"
        }
      ],
      "name": "destroyBlackFunds",
      "outputs": [],
      "payable": false,
      "stateMutability": "nonpayable",
      "type": "function"
    },
    {
      "inputs": [
        {
          "name": "_initialSupply",
          "type": "uint256"
        },
        {
          "name": "_name",
          "type": "string"
        },
        {
          "name": "_symbol",
          "type": "string"
        },
        {
          "name": "_decimals",
          "type": "uint8"
        }
      ],
      "payable": false,
      "stateMutability": "nonpayable",
      "type": "constructor"
    },
    {
      "anonymous": false,
      "inputs": [
        {
          "indexed": true,
          "name": "_blackListedUser",
          "type": "address"
        },
        {
          "indexed": false,
          "name": "_balance",
          "type": "uint256"
        }
      ],
      "name": "DestroyedBlackFunds",
      "type": "event"
    },
    {
      "anonymous": false,
      "inputs": [
        {
          "indexed": false,
          "name": "amount",
          "type": "uint256"
        }
      ],
      "name": "Issue",
      "type": "event"
    },
    {
      "anonymous": false,
      "inputs": [
        {
          "indexed": false,
          "name": "amount",
          "type": "uint256"
        }
      ],
      "name": "Redeem",
      "type": "event"
    },
    {
      "anonymous": false,
      "inputs": [
        {
          "indexed": false,
          "name": "newAddress",
          "type": "address"
        }
      ],
      "name": "Deprecate",
      "type": "event"
    },
    {
      "anonymous": false,
      "inputs": [
        {
          "indexed": true,
          "name": "_user",
          "type": "address"
        }
      ],
      "name": "AddedBlackList",
      "type": "event"
    },
    {
      "anonymous": false,
      "inputs": [
        {
          "indexed": true,
          "name": "_user",
          "type": "address"
        }
      ],
      "name": "RemovedBlackList",
      "type": "event"
    },
    {
      "anonymous": false,
      "inputs": [
        {
          "indexed": false,
          "name": "feeBasisPoints",
          "type": "uint256"
        },
        {
          "indexed": false,
          "name": "maxFee",
          "type": "uint256"
        }
      ],
      "name": "Params",
      "type": "event"
    },
    {
      "anonymous": false,
      "inputs": [
        {
          "indexed": true,
          "name": "previousOwner",
          "type": "address"
        },
        {
          "indexed": true,
          "name": "newOwner",
          "type": "address"
        }
      ],
      "name": "OwnershipTransferred",
      "type": "event"
    },
    {
      "anonymous": false,
      "inputs": [
        {
          "indexed": true,
          "name": "from",
          "type": "address"
        },
        {
          "indexed": true,
          "name": "to",
          "type": "address"
        },
        {
          "indexed": false,
          "name": "value",
          "type": "uint256"
        }
      ],
      "name": "Transfer",
      "type": "event"
    },
    {
      "anonymous": false,
      "inputs": [
        {
          "indexed": true,
          "name": "owner",
          "type": "address"
        },
        {
          "indexed": true,
          "name": "spender",
          "type": "address"
        },
        {
          "indexed": false,
          "name": "value",
          "type": "uint256"
        }
      ],
      "name": "Approval",
      "type": "event"
    },
    {
      "anonymous": false,
      "inputs": [
        {
          "indexed": false,
          "name": "account",
          "type": "address"
        }
      ],
      "name": "Paused",
      "type": "event"
    },
    {
      "anonymous": false,
      "inputs": [
        {
          "indexed": false,
          "name": "account",
          "type": "address"
        }
      ],
      "name": "Unpaused",
      "type": "event"
    },
    {
      "anonymous": false,
      "inputs": [
        {
          "indexed": true,
          "name": "account",
          "type": "address"
        }
      ],
      "name": "PauserAdded",
      "type": "event"
    },
    {
      "anonymous": false,
      "inputs": [
        {
          "indexed": true,
          "name": "account",
          "type": "address"
        }
      ],
      "name": "PauserRemoved",
      "type": "event"
    }
  ],
  "transactionHash": "0x883615aa4cb69c114c9e288884f4a8bf097c46b5c3096c94e4a4009d3153f46e",
  "args": [
    "1000000000000000000000",
    "Gold Tether",
    "XAUt",
    6
  ],
  "solcInputHash": "0c0864ebe317b9d36f575e99e1b01324",
  "bytecode": "0x6080604052600060065560006007553480156200001b57600080fd5b5060405162001fc338038062001fc3833981018060405260808110156200004157600080fd5b8151602083018051919392830192916401000000008111156200006357600080fd5b820160208101848111156200007757600080fd5b81516401000000008111828201871017156200009257600080fd5b50509291906020018051640100000000811115620000af57600080fd5b82016020810184811115620000c357600080fd5b8151640100000000811182820187101715620000de57600080fd5b50506020909101519092509050620000ff3364010000000062000205810204565b6001805460ff1916905560058054600160a060020a031916331790819055604051600160a060020a0391909116906000907f8be0079c531659141344cd1fd0a4f28419497f9722a3daafe3b4186f6b6457e0908290a36200017c6200016c64010000000062000257810204565b8564010000000062000267810204565b825162000191906008906020860190620003d5565b508151620001a7906009906020850190620003d5565b50600a805460ff191660ff8316179055600c805460a060020a60ff02191690556040805185815290517fcb8241adb0c3fdb35b70c24ce35c5eb0c17af7431c99f827d44a445ca624176a916020908290030190a15050505062000477565b6200022060008264010000000062001a916200032882021704565b604051600160a060020a038216907f6719d08c1888103bea251a4ed56406bd0c3e69723c8a1686e017e7bbe159b6f890600090a250565b600554600160a060020a03165b90565b600160a060020a03821615156200027d57600080fd5b6004546200029a9082640100000000620015256200038382021704565b600455600160a060020a038216600090815260026020526040902054620002d09082640100000000620015256200038382021704565b600160a060020a03831660008181526002602090815260408083209490945583518581529351929391927fddf252ad1be2c89b69c2b068fc378daa952ba7f163c4a11628f55a4df523b3ef9281900390910190a35050565b600160a060020a03811615156200033e57600080fd5b6200035382826401000000006200039d810204565b156200035e57600080fd5b600160a060020a0316600090815260209190915260409020805460ff19166001179055565b6000828201838110156200039657600080fd5b9392505050565b6000600160a060020a0382161515620003b557600080fd5b50600160a060020a03166000908152602091909152604090205460ff1690565b828054600181600116156101000203166002900490600052602060002090601f016020900481019282601f106200041857805160ff191683800117855562000448565b8280016001018555821562000448579182015b82811115620004485782518255916020019190600101906200042b565b50620004569291506200045a565b5090565b6200026491905b8082111562000456576000815560010162000461565b611b3c80620004876000396000f3fe608060405234801561001057600080fd5b506004361061024f576000357c01000000000000000000000000000000000000000000000000000000009004806382dc1ec41161014d578063cc872b66116100d5578063e47d606011610099578063e47d60601461066e578063e4997dc514610694578063e5b5019a146106ba578063f2fde38b146106c2578063f3bdc228146106e85761024f565b8063cc872b66146105d2578063d73dd623146105ef578063db006a751461061b578063dd62ed3e14610638578063dd644f72146106665761024f565b806395d89b411161011c57806395d89b4114610529578063a457c2d714610531578063a9059cbb1461055d578063b7a3446c14610589578063c0324c77146105af5761024f565b806382dc1ec4146104eb5780638456cb59146105115780638da5cb5b146105195780638f32d59b146105215761024f565b806335390714116101db5780635c975abb1161019f5780635c975abb1461048157806366188463146104895780636ef8d66d146104b557806370a08231146104bd578063715018a6146104e35761024f565b806335390714146103f957806339509351146104015780633f4ba83a1461042d57806346fbf68e1461043557806359bf1abe1461045b5761024f565b80630ecb93c0116102225780630ecb93c01461034157806318160ddd1461036757806323b872dd1461038157806326976e3f146103b7578063313ce567146103db5761024f565b806306fdde03146102545780630753c30c146102d1578063095ea7b3146102f95780630e136b1914610339575b600080fd5b61025c61070e565b6040805160208082528351818301528351919283929083019185019080838360005b8381101561029657818101518382015260200161027e565b50505050905090810190601f1680156102c35780820380516001836020036101000a031916815260200191505b509250505060405180910390f35b6102f7600480360360208110156102e757600080fd5b5035600160a060020a031661079c565b005b6103256004803603604081101561030f57600080fd5b50600160a060020a038135169060200135610845565b604080519115158252519081900360200190f35b610325610925565b6102f76004803603602081101561035757600080fd5b5035600160a060020a0316610935565b61036f610994565b60408051918252519081900360200190f35b6103256004803603606081101561039757600080fd5b50600160a060020a03813581169160208101359091169060400135610a54565b6103bf610b64565b60408051600160a060020a039092168252519081900360200190f35b6103e3610b73565b6040805160ff9092168252519081900360200190f35b61036f610b7c565b6103256004803603604081101561041757600080fd5b50600160a060020a038135169060200135610b82565b6102f7610bcc565b6103256004803603602081101561044b57600080fd5b5035600160a060020a0316610c30565b6103256004803603602081101561047157600080fd5b5035600160a060020a0316610c4a565b610325610c68565b6103256004803603604081101561049f57600080fd5b50600160a060020a038135169060200135610c71565b6102f7610d15565b61036f600480360360208110156104d357600080fd5b5035600160a060020a0316610d20565b6102f7610dde565b6102f76004803603602081101561050157600080fd5b5035600160a060020a0316610e48565b6102f7610e68565b6103bf610ecd565b610325610edc565b61025c610eed565b6103256004803603604081101561054757600080fd5b50600160a060020a038135169060200135610f48565b6103256004803603604081101561057357600080fd5b50600160a060020a038135169060200135610f84565b61036f6004803603602081101561059f57600080fd5b5035600160a060020a0316611045565b6102f7600480360360408110156105c557600080fd5b5080359060200135611063565b6102f7600480360360208110156105e857600080fd5b50356110f7565b6103256004803603604081101561060557600080fd5b50600160a060020a038135169060200135611168565b6102f76004803603602081101561063157600080fd5b503561120c565b61036f6004803603604081101561064e57600080fd5b50600160a060020a038135811691602001351661127d565b61036f61131e565b6103256004803603602081101561068457600080fd5b5035600160a060020a0316611324565b6102f7600480360360208110156106aa57600080fd5b5035600160a060020a0316611339565b61036f611395565b6102f7600480360360208110156106d857600080fd5b5035600160a060020a031661139b565b6102f7600480360360208110156106fe57600080fd5b5035600160a060020a03166113b7565b6008805460408051602060026001851615610100026000190190941693909304601f810184900484028201840190925281815292918301828280156107945780601f1061076957610100808354040283529160200191610794565b820191906000526020600020905b81548152906001019060200180831161077757829003601f168201915b505050505081565b6107a4610edc565b15156107af57600080fd5b600160a060020a03811615156107c457600080fd5b600c805460a060020a74ff0000000000000000000000000000000000000000199091161773ffffffffffffffffffffffffffffffffffffffff1916600160a060020a03831690811790915560408051918252517fcc358699805e9a8b7f77b522628c7cb9abd07d9efb86b6fb616af1609036a99e916020908290030190a150565b60015460009060ff161561085857600080fd5b600c5460a060020a900460ff161561091257600c54604080517faee92d33000000000000000000000000000000000000000000000000000000008152336004820152600160a060020a038681166024830152604482018690529151919092169163aee92d339160648083019260209291908290030181600087803b1580156108df57600080fd5b505af11580156108f3573d6000803e3d6000fd5b505050506040513d602081101561090957600080fd5b5051905061091f565b61091c838361144b565b90505b92915050565b600c5460a060020a900460ff1681565b61093d610edc565b151561094857600080fd5b600160a060020a0381166000818152600b6020526040808220805460ff19166001179055517f42e160154868087d6bfdc0ca23d96a1c1cfa32f1b72ba9ba27b69b98a0d819dc9190a250565b600c5460009060a060020a900460ff1615610a4657600c60009054906101000a9004600160a060020a0316600160a060020a03166318160ddd6040518163ffffffff167c010000000000000000000000000000000000000000000000000000000002815260040160206040518083038186803b158015610a1357600080fd5b505afa158015610a27573d6000803e3d6000fd5b505050506040513d6020811015610a3d57600080fd5b50519050610a51565b610a4e611458565b90505b90565b60015460009060ff1615610a6757600080fd5b600160a060020a0384166000908152600b602052604090205460ff1615610a8d57600080fd5b600c5460a060020a900460ff1615610b4f57600c54604080517f8b477adb000000000000000000000000000000000000000000000000000000008152336004820152600160a060020a03878116602483015286811660448301526064820186905291519190921691638b477adb9160848083019260209291908290030181600087803b158015610b1c57600080fd5b505af1158015610b30573d6000803e3d6000fd5b505050506040513d6020811015610b4657600080fd5b50519050610b5d565b610b5a84848461145e565b90505b9392505050565b600c54600160a060020a031681565b600a5460ff1681565b60075481565b336000818152600360209081526040808320600160a060020a03871684529091528120549091610bc3918590610bbe908663ffffffff61152516565b611537565b50600192915050565b610bd533610c30565b1515610be057600080fd5b60015460ff161515610bf157600080fd5b6001805460ff191690556040805133815290517f5db9ee0a495bf2e6ff9c91a7834c1ba4fdd244a5e8aa4e537bd38aeae4b073aa9181900360200190a1565b6000610c42818363ffffffff6115c316565b90505b919050565b600160a060020a03166000908152600b602052604090205460ff1690565b60015460ff1690565b60015460009060ff1615610c8457600080fd5b600c5460a060020a900460ff1615610d0b57600c54604080517f6001279f000000000000000000000000000000000000000000000000000000008152336004820152600160a060020a0386811660248301526044820186905291519190921691636001279f9160648083019260209291908290030181600087803b1580156108df57600080fd5b61091c8383610f48565b610d1e336115fa565b565b600c5460009060a060020a900460ff1615610dce57600c54604080517f70a08231000000000000000000000000000000000000000000000000000000008152600160a060020a038581166004830152915191909216916370a08231916024808301926020929190829003018186803b158015610d9b57600080fd5b505afa158015610daf573d6000803e3d6000fd5b505050506040513d6020811015610dc557600080fd5b50519050610c45565b610dd782611642565b9050610c45565b610de6610edc565b1515610df157600080fd5b600554604051600091600160a060020a0316907f8be0079c531659141344cd1fd0a4f28419497f9722a3daafe3b4186f6b6457e0908390a36005805473ffffffffffffffffffffffffffffffffffffffff19169055565b610e5133610c30565b1515610e5c57600080fd5b610e658161165d565b50565b610e7133610c30565b1515610e7c57600080fd5b60015460ff1615610e8c57600080fd5b6001805460ff1916811790556040805133815290517f62e78cea01bee320cd4e420270b5ea74000d11b0c9f74754ebdbfc544b05a2589181900360200190a1565b600554600160a060020a031690565b600554600160a060020a0316331490565b6009805460408051602060026001851615610100026000190190941693909304601f810184900484028201840190925281815292918301828280156107945780601f1061076957610100808354040283529160200191610794565b336000818152600360209081526040808320600160a060020a03871684529091528120549091610bc3918590610bbe908663ffffffff6116a516565b60015460009060ff1615610f9757600080fd5b336000908152600b602052604090205460ff1615610fb457600080fd5b600c5460a060020a900460ff161561103b57600c54604080517f6e18980a000000000000000000000000000000000000000000000000000000008152336004820152600160a060020a0386811660248301526044820186905291519190921691636e18980a9160648083019260209291908290030181600087803b1580156108df57600080fd5b61091c83836116ba565b600c5460009060a060020a900460ff1615610c4557610dd782611642565b61106b610edc565b151561107657600080fd5b6014821061108357600080fd5b6032811061109057600080fd5b6006829055600a80546110af91839160ff16900a63ffffffff61170b16565b600781905560065460408051918252602082019290925281517fb044a1e409eac5c48e5af22d4af52670dd1a99059537a78b31b48c6500a6354e929181900390910190a15050565b6110ff610edc565b151561110a57600080fd5b600c5460a060020a900460ff161561112157600080fd5b61113261112c610ecd565b82611736565b6040805182815290517fcb8241adb0c3fdb35b70c24ce35c5eb0c17af7431c99f827d44a445ca624176a9181900360200190a150565b60015460009060ff161561117b57600080fd5b600c5460a060020a900460ff161561120257600c54604080517fa9538157000000000000000000000000000000000000000000000000000000008152336004820152600160a060020a038681166024830152604482018690529151919092169163a95381579160648083019260209291908290030181600087803b1580156108df57600080fd5b61091c8383610b82565b611214610edc565b151561121f57600080fd5b600c5460a060020a900460ff161561123657600080fd5b611247611241610ecd565b826117e2565b6040805182815290517f702d5967f45f6513a38ffc42d6ba9bf230bd40e8f53b16363c7eb4fd2deb9a449181900360200190a150565b600c5460009060a060020a900460ff161561131457600c54604080517fdd62ed3e000000000000000000000000000000000000000000000000000000008152600160a060020a03868116600483015285811660248301529151919092169163dd62ed3e916044808301926020929190829003018186803b15801561130057600080fd5b505afa1580156108f3573d6000803e3d6000fd5b61091c838361188d565b60065481565b600b6020526000908152604090205460ff1681565b611341610edc565b151561134c57600080fd5b600160a060020a0381166000818152600b6020526040808220805460ff19169055517fd7e9ec6e6ecd65492dce6bf513cd6867560d49544421d0783ddf06e76c24470c9190a250565b60001981565b6113a3610edc565b15156113ae57600080fd5b610e65816118b8565b6113bf610edc565b15156113ca57600080fd5b600160a060020a0381166000908152600b602052604090205460ff1615156113f157600080fd5b60006113fc82610d20565b905061140882826117e2565b604080518281529051600160a060020a038416917f61e6e66b0d6339b2980aecc6ccc0039736791f0ccde9ed512e789a7fbdd698c6919081900360200190a25050565b6000610bc3338484611537565b60045490565b6000600160a060020a038316151561147557600080fd5b61147e84610d20565b82111561148a57600080fd5b611494843361127d565b8211156114a057600080fd5b60006114ab83611936565b905060006114bf848363ffffffff6116a516565b90506114cc868683611976565b6000196114d9873361127d565b10156114fe576114fe8633610bbe876114f28b3361127d565b9063ffffffff6116a516565b60008211156115195761151986611513610ecd565b84611976565b50600195945050505050565b60008282018381101561091c57600080fd5b600160a060020a038216151561154c57600080fd5b600160a060020a038316151561156157600080fd5b600160a060020a03808416600081815260036020908152604080832094871680845294825291829020859055815185815291517f8c5be1e5ebec7d5bd14f71427d1e84f3dd0314c0f7b2291e5b200ac8c7c3b9259281900390910190a3505050565b6000600160a060020a03821615156115da57600080fd5b50600160a060020a03166000908152602091909152604090205460ff1690565b61160b60008263ffffffff611a4516565b604051600160a060020a038216907fcd265ebaf09df2871cc7bd4133404a235ba12eff2041bb89d9c714a2621c7c7e90600090a250565b600160a060020a031660009081526002602052604090205490565b61166e60008263ffffffff611a9116565b604051600160a060020a038216907f6719d08c1888103bea251a4ed56406bd0c3e69723c8a1686e017e7bbe159b6f890600090a250565b6000828211156116b457600080fd5b50900390565b6000806116c683611936565b905060006116da848363ffffffff6116a516565b90506116e68582611adf565b506000821115611703576117016116fb610ecd565b83611adf565b505b505092915050565b600082151561171c5750600061091f565b82820282848281151561172b57fe5b041461091c57600080fd5b600160a060020a038216151561174b57600080fd5b60045461175e908263ffffffff61152516565b600455600160a060020a03821660009081526002602052604090205461178a908263ffffffff61152516565b600160a060020a03831660008181526002602090815260408083209490945583518581529351929391927fddf252ad1be2c89b69c2b068fc378daa952ba7f163c4a11628f55a4df523b3ef9281900390910190a35050565b600160a060020a03821615156117f757600080fd5b60045461180a908263ffffffff6116a516565b600455600160a060020a038216600090815260026020526040902054611836908263ffffffff6116a516565b600160a060020a0383166000818152600260209081526040808320949094558351858152935191937fddf252ad1be2c89b69c2b068fc378daa952ba7f163c4a11628f55a4df523b3ef929081900390910190a35050565b600160a060020a03918216600090815260036020908152604080832093909416825291909152205490565b600160a060020a03811615156118cd57600080fd5b600554604051600160a060020a038084169216907f8be0079c531659141344cd1fd0a4f28419497f9722a3daafe3b4186f6b6457e090600090a36005805473ffffffffffffffffffffffffffffffffffffffff1916600160a060020a0392909216919091179055565b6000806119606127106119546006548661170b90919063ffffffff16565b9063ffffffff611aec16565b9050600754811115610c42575060075492915050565b600160a060020a038216151561198b57600080fd5b600160a060020a0383166000908152600260205260409020546119b4908263ffffffff6116a516565b600160a060020a0380851660009081526002602052604080822093909355908416815220546119e9908263ffffffff61152516565b600160a060020a0380841660008181526002602090815260409182902094909455805185815290519193928716927fddf252ad1be2c89b69c2b068fc378daa952ba7f163c4a11628f55a4df523b3ef92918290030190a3505050565b600160a060020a0381161515611a5a57600080fd5b611a6482826115c3565b1515611a6f57600080fd5b600160a060020a0316600090815260209190915260409020805460ff19169055565b600160a060020a0381161515611aa657600080fd5b611ab082826115c3565b15611aba57600080fd5b600160a060020a0316600090815260209190915260409020805460ff19166001179055565b6000610bc3338484611976565b6000808211611afa57600080fd5b60008284811515611b0757fe5b0494935050505056fea165627a7a723058206bd1d338af1813cf1154f7f6031dc61c6959d82dc4a23f00144fd4077da3b2350029",
  "devdoc": {
    "methods": {
      "decreaseAllowance(address,uint256)": {
        "details": "Decrease the amount of tokens that an owner allowed to a spender.\r approve should be called when _allowed[msg.sender][spender] == 0. To decrement\r allowed value is better to use this function to avoid 2 calls (and wait until\r the first transaction is mined)\r From MonolithDAO Token.sol\r Emits an Approval event.\r",
        "params": {
          "spender": "The address which will spend the funds.\r",
          "subtractedValue": "The amount of tokens to decrease the allowance by.\r"
        }
      },
      "increaseAllowance(address,uint256)": {
        "details": "Increase the amount of tokens that an owner allowed to a spender.\r approve should be called when _allowed[msg.sender][spender] == 0. To increment\r allowed value is better to use this function to avoid 2 calls (and wait until\r the first transaction is mined)\r From MonolithDAO Token.sol\r Emits an Approval event.\r",
        "params": {
          "addedValue": "The amount of tokens to increase the allowance by.\r",
          "spender": "The address which will spend the funds.\r"
        }
      },
      "isOwner()": {
        "return": "true if `msg.sender` is the owner of the contract.\r"
      },
      "owner()": {
        "return": "the address of the owner.\r"
      },
      "pause()": {
        "details": "called by the owner to pause, triggers stopped state\r"
      },
      "paused()": {
        "return": "true if the contract is paused, false otherwise.\r"
      },
      "renounceOwnership()": {
        "details": "Allows the current owner to relinquish control of the contract.\r It will not be possible to call the functions with the `onlyOwner`\r modifier anymore.\r"
      },
      "transferOwnership(address)": {
        "details": "Allows the current owner to transfer control of the contract to a newOwner.\r",
        "params": {
          "newOwner": "The address to transfer ownership to.\r"
        }
      },
      "unpause()": {
        "details": "called by the owner to unpause, returns to normal state\r"
      }
    }
  },
  "userdoc": {
    "methods": {
      "getBlackListStatus(address)": {
        "notice": "//// Getter to allow the same blacklist to be used also by other contracts (including upgraded Tether) ///////"
      },
      "renounceOwnership()": {
        "notice": "Renouncing ownership will leave the contract without an owner,\r thereby removing any functionality that is only available to the owner.\r"
      }
    }
  }
}